{
  "_format": "hh-sol-artifact-1",
  "contractName": "RandomWinnerGame",
  "sourceName": "contracts/RandomWinnerGame.sol",
  "abi": [
    {
      "inputs": [
        {
          "internalType": "address",
          "name": "vrfCoordinator",
          "type": "address"
        },
        {
          "internalType": "address",
          "name": "linkToken",
          "type": "address"
        },
        {
          "internalType": "bytes32",
          "name": "vrfKeyHash",
          "type": "bytes32"
        },
        {
          "internalType": "uint256",
          "name": "vrfFee",
          "type": "uint256"
        }
      ],
      "stateMutability": "nonpayable",
      "type": "constructor"
    },
    {
      "anonymous": false,
      "inputs": [
        {
          "indexed": false,
          "internalType": "uint256",
          "name": "gameId",
          "type": "uint256"
        },
        {
          "indexed": false,
          "internalType": "address",
          "name": "winner",
          "type": "address"
        },
        {
          "indexed": false,
          "internalType": "bytes32",
          "name": "requestId",
          "type": "bytes32"
        }
      ],
      "name": "GameEnded",
      "type": "event"
    },
    {
      "anonymous": false,
      "inputs": [
        {
          "indexed": false,
          "internalType": "uint256",
          "name": "gameId",
          "type": "uint256"
        },
        {
          "indexed": false,
          "internalType": "uint8",
          "name": "maxPlayers",
          "type": "uint8"
        },
        {
          "indexed": false,
          "internalType": "uint256",
          "name": "entryFee",
          "type": "uint256"
        }
      ],
      "name": "GameStarted",
      "type": "event"
    },
    {
      "anonymous": false,
      "inputs": [
        {
          "indexed": true,
          "internalType": "address",
          "name": "previousOwner",
          "type": "address"
        },
        {
          "indexed": true,
          "internalType": "address",
          "name": "newOwner",
          "type": "address"
        }
      ],
      "name": "OwnershipTransferred",
      "type": "event"
    },
    {
      "anonymous": false,
      "inputs": [
        {
          "indexed": false,
          "internalType": "uint256",
          "name": "gameId",
          "type": "uint256"
        },
        {
          "indexed": false,
          "internalType": "address",
          "name": "player",
          "type": "address"
        }
      ],
      "name": "PlayerJoined",
      "type": "event"
    },
    {
      "stateMutability": "payable",
      "type": "fallback"
    },
    {
      "inputs": [],
      "name": "entryFee",
      "outputs": [
        {
          "internalType": "uint256",
          "name": "",
          "type": "uint256"
        }
      ],
      "stateMutability": "view",
      "type": "function"
    },
    {
      "inputs": [],
      "name": "fee",
      "outputs": [
        {
          "internalType": "uint256",
          "name": "",
          "type": "uint256"
        }
      ],
      "stateMutability": "view",
      "type": "function"
    },
    {
      "inputs": [],
      "name": "gameId",
      "outputs": [
        {
          "internalType": "uint256",
          "name": "",
          "type": "uint256"
        }
      ],
      "stateMutability": "view",
      "type": "function"
    },
    {
      "inputs": [],
      "name": "gameStarted",
      "outputs": [
        {
          "internalType": "bool",
          "name": "",
          "type": "bool"
        }
      ],
      "stateMutability": "view",
      "type": "function"
    },
    {
      "inputs": [],
      "name": "joinGame",
      "outputs": [],
      "stateMutability": "payable",
      "type": "function"
    },
    {
      "inputs": [],
      "name": "keyHash",
      "outputs": [
        {
          "internalType": "bytes32",
          "name": "",
          "type": "bytes32"
        }
      ],
      "stateMutability": "view",
      "type": "function"
    },
    {
      "inputs": [],
      "name": "owner",
      "outputs": [
        {
          "internalType": "address",
          "name": "",
          "type": "address"
        }
      ],
      "stateMutability": "view",
      "type": "function"
    },
    {
      "inputs": [
        {
          "internalType": "uint256",
          "name": "",
          "type": "uint256"
        }
      ],
      "name": "players",
      "outputs": [
        {
          "internalType": "address",
          "name": "",
          "type": "address"
        }
      ],
      "stateMutability": "view",
      "type": "function"
    },
    {
      "inputs": [
        {
          "internalType": "bytes32",
          "name": "requestId",
          "type": "bytes32"
        },
        {
          "internalType": "uint256",
          "name": "randomness",
          "type": "uint256"
        }
      ],
      "name": "rawFulfillRandomness",
      "outputs": [],
      "stateMutability": "nonpayable",
      "type": "function"
    },
    {
      "inputs": [],
      "name": "renounceOwnership",
      "outputs": [],
      "stateMutability": "nonpayable",
      "type": "function"
    },
    {
      "inputs": [
        {
          "internalType": "uint8",
          "name": "_maxPlayers",
          "type": "uint8"
        },
        {
          "internalType": "uint256",
          "name": "_entryFee",
          "type": "uint256"
        }
      ],
      "name": "startGame",
      "outputs": [],
      "stateMutability": "nonpayable",
      "type": "function"
    },
    {
      "inputs": [
        {
          "internalType": "address",
          "name": "newOwner",
          "type": "address"
        }
      ],
      "name": "transferOwnership",
      "outputs": [],
      "stateMutability": "nonpayable",
      "type": "function"
    },
    {
      "stateMutability": "payable",
      "type": "receive"
    }
  ],
  "bytecode": "0x60c06040523480156200001157600080fd5b5060405162001c5d38038062001c5d83398181016040528101906200003791906200020f565b83838173ffffffffffffffffffffffffffffffffffffffff1660a08173ffffffffffffffffffffffffffffffffffffffff1660601b815250508073ffffffffffffffffffffffffffffffffffffffff1660808173ffffffffffffffffffffffffffffffffffffffff1660601b815250505050620000c9620000bd620000fc60201b60201c565b6200010460201b60201c565b81600381905550806002819055506000600560016101000a81548160ff0219169083151502179055505050505062000311565b600033905090565b6000600160009054906101000a900473ffffffffffffffffffffffffffffffffffffffff16905081600160006101000a81548173ffffffffffffffffffffffffffffffffffffffff021916908373ffffffffffffffffffffffffffffffffffffffff1602179055508173ffffffffffffffffffffffffffffffffffffffff168173ffffffffffffffffffffffffffffffffffffffff167f8be0079c531659141344cd1fd0a4f28419497f9722a3daafe3b4186f6b6457e060405160405180910390a35050565b600081519050620001db81620002c3565b92915050565b600081519050620001f281620002dd565b92915050565b6000815190506200020981620002f7565b92915050565b600080600080608085870312156200022657600080fd5b60006200023687828801620001ca565b94505060206200024987828801620001ca565b93505060406200025c87828801620001e1565b92505060606200026f87828801620001f8565b91505092959194509250565b6000620002888262000299565b9050919050565b6000819050919050565b600073ffffffffffffffffffffffffffffffffffffffff82169050919050565b6000819050919050565b620002ce816200027b565b8114620002da57600080fd5b50565b620002e8816200028f565b8114620002f457600080fd5b50565b6200030281620002b9565b81146200030e57600080fd5b50565b60805160601c60a05160601c6119126200034b600039600081816103620152610c06015260008181610acb0152610bca01526119126000f3fe6080604052600436106100ab5760003560e01c8063d4f77b1c11610064578063d4f77b1c146101a0578063d7c81b55146101aa578063ddca3f43146101d5578063e849c38e14610200578063f2fde38b14610229578063f71d96cb14610252576100b2565b8063072ea61c146100b45780635e123ce4146100df57806361728f391461010a578063715018a6146101355780638da5cb5b1461014c57806394985ddd14610177576100b2565b366100b257005b005b3480156100c057600080fd5b506100c961028f565b6040516100d691906113da565b60405180910390f35b3480156100eb57600080fd5b506100f4610295565b6040516101019190611216565b60405180910390f35b34801561011657600080fd5b5061011f6102a8565b60405161012c9190611231565b60405180910390f35b34801561014157600080fd5b5061014a6102ae565b005b34801561015857600080fd5b50610161610336565b60405161016e91906111bd565b60405180910390f35b34801561018357600080fd5b5061019e60048036038101906101999190610ea2565b610360565b005b6101a86103fc565b005b3480156101b657600080fd5b506101bf6105b2565b6040516101cc91906113da565b60405180910390f35b3480156101e157600080fd5b506101ea6105b8565b6040516101f791906113da565b60405180910390f35b34801561020c57600080fd5b5061022760048036038101906102229190610f30565b6105be565b005b34801561023557600080fd5b50610250600480360381019061024b9190610e50565b61073d565b005b34801561025e57600080fd5b5061027960048036038101906102749190610ede565b610835565b60405161028691906111bd565b60405180910390f35b60065481565b600560019054906101000a900460ff1681565b60035481565b6102b6610874565b73ffffffffffffffffffffffffffffffffffffffff166102d4610336565b73ffffffffffffffffffffffffffffffffffffffff161461032a576040517f08c379a00000000000000000000000000000000000000000000000000000000081526004016103219061133a565b60405180910390fd5b610334600061087c565b565b6000600160009054906101000a900473ffffffffffffffffffffffffffffffffffffffff16905090565b7f000000000000000000000000000000000000000000000000000000000000000073ffffffffffffffffffffffffffffffffffffffff163373ffffffffffffffffffffffffffffffffffffffff16146103ee576040517f08c379a00000000000000000000000000000000000000000000000000000000081526004016103e59061137a565b60405180910390fd5b6103f88282610942565b5050565b600560019054906101000a900460ff1661044b576040517f08c379a0000000000000000000000000000000000000000000000000000000008152600401610442906112fa565b60405180910390fd5b600654341015610490576040517f08c379a00000000000000000000000000000000000000000000000000000000081526004016104879061135a565b60405180910390fd5b600560009054906101000a900460ff1660ff16600480549050106104e9576040517f08c379a00000000000000000000000000000000000000000000000000000000081526004016104e0906112ba565b60405180910390fd5b6004339080600181540180825580915050600190039060005260206000200160009091909190916101000a81548173ffffffffffffffffffffffffffffffffffffffff021916908373ffffffffffffffffffffffffffffffffffffffff1602179055507f87969bc7faf902221a147b95ceba76e011c5efb0339a0a8ee7a2bb82d9cfbbd66007543360405161057f9291906113f5565b60405180910390a1600560009054906101000a900460ff1660ff1660048054905014156105b0576105ae610ac4565b505b565b60075481565b60025481565b6105c6610874565b73ffffffffffffffffffffffffffffffffffffffff166105e4610336565b73ffffffffffffffffffffffffffffffffffffffff161461063a576040517f08c379a00000000000000000000000000000000000000000000000000000000081526004016106319061133a565b60405180910390fd5b600560019054906101000a900460ff161561068a576040517f08c379a0000000000000000000000000000000000000000000000000000000008152600401610681906113ba565b60405180910390fd5b600460006106989190610d94565b81600560006101000a81548160ff021916908360ff1602179055506001600560016101000a81548160ff021916908315150217905550806006819055506007600081546106e4906115ac565b919050819055507f10a7675bf1b19b67834ca5a59866847fd31c62cdfc8e9466039e6b8e088e15ae600754600560009054906101000a900460ff1660065460405161073193929190611455565b60405180910390a15050565b610745610874565b73ffffffffffffffffffffffffffffffffffffffff16610763610336565b73ffffffffffffffffffffffffffffffffffffffff16146107b9576040517f08c379a00000000000000000000000000000000000000000000000000000000081526004016107b09061133a565b60405180910390fd5b600073ffffffffffffffffffffffffffffffffffffffff168173ffffffffffffffffffffffffffffffffffffffff161415610829576040517f08c379a0000000000000000000000000000000000000000000000000000000008152600401610820906112da565b60405180910390fd5b6108328161087c565b50565b6004818154811061084557600080fd5b906000526020600020016000915054906101000a900473ffffffffffffffffffffffffffffffffffffffff1681565b600033905090565b6000600160009054906101000a900473ffffffffffffffffffffffffffffffffffffffff16905081600160006101000a81548173ffffffffffffffffffffffffffffffffffffffff021916908373ffffffffffffffffffffffffffffffffffffffff1602179055508173ffffffffffffffffffffffffffffffffffffffff168173ffffffffffffffffffffffffffffffffffffffff167f8be0079c531659141344cd1fd0a4f28419497f9722a3daafe3b4186f6b6457e060405160405180910390a35050565b600060048080549050836109569190611609565b8154811061098d577f4e487b7100000000000000000000000000000000000000000000000000000000600052603260045260246000fd5b9060005260206000200160009054906101000a900473ffffffffffffffffffffffffffffffffffffffff16905060008173ffffffffffffffffffffffffffffffffffffffff16476040516109e0906111a8565b60006040518083038185875af1925050503d8060008114610a1d576040519150601f19603f3d011682016040523d82523d6000602084013e610a22565b606091505b5050905080610a66576040517f08c379a0000000000000000000000000000000000000000000000000000000008152600401610a5d9061139a565b60405180910390fd5b7fd2da138ec4b828f6f1dd931eea0488e41e941f7cda657ad8f524ede8cb2c7ce06007548386604051610a9b9392919061141e565b60405180910390a16000600560016101000a81548160ff02191690831515021790555050505050565b60006002547f000000000000000000000000000000000000000000000000000000000000000073ffffffffffffffffffffffffffffffffffffffff166370a08231306040518263ffffffff1660e01b8152600401610b2291906111bd565b60206040518083038186803b158015610b3a57600080fd5b505afa158015610b4e573d6000803e3d6000fd5b505050506040513d601f19601f82011682018060405250810190610b729190610f07565b1015610bb3576040517f08c379a0000000000000000000000000000000000000000000000000000000008152600401610baa9061131a565b60405180910390fd5b610bc1600354600254610bc6565b905090565b60007f000000000000000000000000000000000000000000000000000000000000000073ffffffffffffffffffffffffffffffffffffffff16634000aea07f000000000000000000000000000000000000000000000000000000000000000084866000604051602001610c3a92919061124c565b6040516020818303038152906040526040518463ffffffff1660e01b8152600401610c67939291906111d8565b602060405180830381600087803b158015610c8157600080fd5b505af1158015610c95573d6000803e3d6000fd5b505050506040513d601f19601f82011682018060405250810190610cb99190610e79565b506000610cdb8460003060008089815260200190815260200160002054610d25565b9050600160008086815260200190815260200160002054610cfc91906114c4565b60008086815260200190815260200160002081905550610d1c8482610d61565b91505092915050565b600084848484604051602001610d3e9493929190611275565b6040516020818303038152906040528051906020012060001c9050949350505050565b60008282604051602001610d7692919061117c565b60405160208183030381529060405280519060200120905092915050565b5080546000825590600052602060002090810190610db29190610db5565b50565b5b80821115610dce576000816000905550600101610db6565b5090565b600081359050610de181611869565b92915050565b600081519050610df681611880565b92915050565b600081359050610e0b81611897565b92915050565b600081359050610e20816118ae565b92915050565b600081519050610e35816118ae565b92915050565b600081359050610e4a816118c5565b92915050565b600060208284031215610e6257600080fd5b6000610e7084828501610dd2565b91505092915050565b600060208284031215610e8b57600080fd5b6000610e9984828501610de7565b91505092915050565b60008060408385031215610eb557600080fd5b6000610ec385828601610dfc565b9250506020610ed485828601610e11565b9150509250929050565b600060208284031215610ef057600080fd5b6000610efe84828501610e11565b91505092915050565b600060208284031215610f1957600080fd5b6000610f2784828501610e26565b91505092915050565b60008060408385031215610f4357600080fd5b6000610f5185828601610e3b565b9250506020610f6285828601610e11565b9150509250929050565b610f758161151a565b82525050565b610f848161152c565b82525050565b610f9381611538565b82525050565b610faa610fa582611538565b6115f5565b82525050565b6000610fbb8261148c565b610fc58185611497565b9350610fd5818560208601611579565b610fde81611698565b840191505092915050565b6000610ff6600d836114b3565b9150611001826116a9565b602082019050919050565b60006110196026836114b3565b9150611024826116d2565b604082019050919050565b600061103c6019836114b3565b915061104782611721565b602082019050919050565b600061105f6017836114b3565b915061106a8261174a565b602082019050919050565b60006110826020836114b3565b915061108d82611773565b602082019050919050565b60006110a56026836114b3565b91506110b08261179c565b604082019050919050565b60006110c8601f836114b3565b91506110d3826117eb565b602082019050919050565b60006110eb601f836114b3565b91506110f682611814565b602082019050919050565b600061110e6000836114a8565b91506111198261183d565b600082019050919050565b6000611131601a836114b3565b915061113c82611840565b602082019050919050565b61115081611562565b82525050565b61116761116282611562565b6115ff565b82525050565b6111768161156c565b82525050565b60006111888285610f99565b6020820191506111988284611156565b6020820191508190509392505050565b60006111b382611101565b9150819050919050565b60006020820190506111d26000830184610f6c565b92915050565b60006060820190506111ed6000830186610f6c565b6111fa6020830185611147565b818103604083015261120c8184610fb0565b9050949350505050565b600060208201905061122b6000830184610f7b565b92915050565b60006020820190506112466000830184610f8a565b92915050565b60006040820190506112616000830185610f8a565b61126e6020830184611147565b9392505050565b600060808201905061128a6000830187610f8a565b6112976020830186611147565b6112a46040830185610f6c565b6112b16060830184611147565b95945050505050565b600060208201905081810360008301526112d381610fe9565b9050919050565b600060208201905081810360008301526112f38161100c565b9050919050565b600060208201905081810360008301526113138161102f565b9050919050565b6000602082019050818103600083015261133381611052565b9050919050565b6000602082019050818103600083015261135381611075565b9050919050565b6000602082019050818103600083015261137381611098565b9050919050565b60006020820190508181036000830152611393816110bb565b9050919050565b600060208201905081810360008301526113b3816110de565b9050919050565b600060208201905081810360008301526113d381611124565b9050919050565b60006020820190506113ef6000830184611147565b92915050565b600060408201905061140a6000830185611147565b6114176020830184610f6c565b9392505050565b60006060820190506114336000830186611147565b6114406020830185610f6c565b61144d6040830184610f8a565b949350505050565b600060608201905061146a6000830186611147565b611477602083018561116d565b6114846040830184611147565b949350505050565b600081519050919050565b600082825260208201905092915050565b600081905092915050565b600082825260208201905092915050565b60006114cf82611562565b91506114da83611562565b9250827fffffffffffffffffffffffffffffffffffffffffffffffffffffffffffffffff0382111561150f5761150e61163a565b5b828201905092915050565b600061152582611542565b9050919050565b60008115159050919050565b6000819050919050565b600073ffffffffffffffffffffffffffffffffffffffff82169050919050565b6000819050919050565b600060ff82169050919050565b60005b8381101561159757808201518184015260208101905061157c565b838111156115a6576000848401525b50505050565b60006115b782611562565b91507fffffffffffffffffffffffffffffffffffffffffffffffffffffffffffffffff8214156115ea576115e961163a565b5b600182019050919050565b6000819050919050565b6000819050919050565b600061161482611562565b915061161f83611562565b92508261162f5761162e611669565b5b828206905092915050565b7f4e487b7100000000000000000000000000000000000000000000000000000000600052601160045260246000fd5b7f4e487b7100000000000000000000000000000000000000000000000000000000600052601260045260246000fd5b6000601f19601f8301169050919050565b7f47616d652069732066756c6c2100000000000000000000000000000000000000600082015250565b7f4f776e61626c653a206e6577206f776e657220697320746865207a65726f206160008201527f6464726573730000000000000000000000000000000000000000000000000000602082015250565b7f47616d6520686173206e6f742073746172746564207965742100000000000000600082015250565b7f4e6f7420656e6f756768204c494e4b20746f6b656e7321000000000000000000600082015250565b7f4f776e61626c653a2063616c6c6572206973206e6f7420746865206f776e6572600082015250565b7f446964206e6f742073656e6420656e6f75676820666f722074686520656e747260008201527f7920666565210000000000000000000000000000000000000000000000000000602082015250565b7f4f6e6c7920565246436f6f7264696e61746f722063616e2066756c66696c6c00600082015250565b7f4661696c656420746f2073656e7420657468657220746f2077696e6e65722100600082015250565b50565b7f47616d652069732063757272656e746c792072756e6e696e6721000000000000600082015250565b6118728161151a565b811461187d57600080fd5b50565b6118898161152c565b811461189457600080fd5b50565b6118a081611538565b81146118ab57600080fd5b50565b6118b781611562565b81146118c257600080fd5b50565b6118ce8161156c565b81146118d957600080fd5b5056fea264697066735822122056976810cb2b9642748c11fd227c23665c14049fbf8c801bd6cc09245a3cbaee64736f6c63430008040033",
  "linkReferences": {},
  "deployedLinkReferences": {}
}